:1000000071C000008EC000008CC000008AC00000DB
:1000100088C0000086C0000084C0000082C00000CC
:1000200080C000007EC0000012C100007AC0000045
:1000300078C00000E7C0000074C0000072C000007B
:1000400070C000006EC000006CC000006AC00000FC
:1000500068C0000066C0000064C0000062C000000C
:1000600060C000005EC000005CC000005AC000001C
:1000700058C0000056C0000054C0000052C000002C
:1000800050C000004EC000004CC000004AC000003C
:1000900048C0000046C0000044C0000042C000004C
:1000A00040C000003EC000003CC000003AC000005C
:1000B00038C0000036C0000034C0000032C000006C
:1000C00030C000002EC000002CC000002AC000007C
:1000D00028C0000026C0000024C0000022C000008C
:1000E00020C0000011241FBECFEFD1E2DEBFCDBF84
:1000F00000E00CBF12E0A0E0B2E0EAEFF6E000E0C2
:100100000BBF02C007900D92A030B107D9F722E0D3
:10011000A0E0B2E001C01D92AE31B207E1F7A9D173
:10012000EAC26ECF813071F028F0823099F08330CE
:10013000C9F020C08091C0008823FCF48091C600E3
:1001400090E008958091C8008823D4F48091CE0077
:1001500090E008958091D0008823ACF48091D6007F
:1001600090E0089580913001882384F480913601D5
:1001700090E008958FEF9FEF08958FEF9FEF089520
:100180008FEF9FEF08958FEF9FEF08958FEF9FEF11
:100190000895813091F028F08230D9F0833029F130
:1001A0002FC0E1ECF0E09081986190832093C20031
:1001B0005093C5004093C40023C02093CA00E9ECCB
:1001C000F0E09081986190835093CD004093CC00F3
:1001D00017C02093D200E1EDF0E090819861908308
:1001E0005093D5004093D4000BC020933201E1E33B
:1001F000F1E09081986190835093350140933401F0
:1002000091CF08951F920F920FB60F9211248F93E2
:100210009F93AF93BF938091060290910702A091A4
:100220000802B09109020196A11DB11D809306023A
:1002300090930702A0930802B0930902BF91AF9177
:100240009F918F910F900FBE0F901F9018951F9246
:100250000F920FB60F9211240BB60F922F933F936C
:100260004F935F936F937F938F939F93EF93FF933E
:10027000E3E0F1E0408150E08091000290910102C2
:100280008427952781BB2081808131B391E093271A
:1002900091BB60910202709103026F5F7F4F709378
:1002A00003026093020231B392E0932791BB609105
:1002B0000402709105026F5F7F4F70930502609397
:1002C0000402226030E030930B0220930A02816026
:1002D00090E090931902809318025093010240938A
:1002E0000002FF91EF919F918F917F916F915F91AC
:1002F0004F913F912F910F900BBE0F900FBE0F901B
:100300001F90189510920502109204021092030299
:100310001092020288EA92E09093290180932801CA
:1003200090932B0180932A01809104029091050201
:10033000863991055CF424E081B3822781BB8091EA
:1003400004029091050286399105B4F310922901B7
:100350001092280110922B0110922A01089587B162
:100360008F6087B9EAE0F1E0808188618083109234
:100370000C0210920D0210920E0210920F021092B7
:10038000100210921102109212021092130288EEC3
:1003900093E09093270180932601109229011092F7
:1003A000280110922B0110922A01E0E2F1E08081F5
:1003B000806A8083E1E2F1E0808182618083439AF8
:1003C000409AE5E0F1E080818C7F8083ECE6F0E00C
:1003D000808182608083808184608083E8E6F0E0B1
:1003E0008081826080830895CF92DF92EF92FF92A6
:1003F000CF93DF936B017C01EA0120E030E0A9019B
:100400006DD081110EC0209729F41092290110920D
:1004100028011EC02197E1F410922B0110922A01AD
:1004200017C020E030E048EC53E4C701B601D8D053
:1004300059D060577E4F209729F47093290160931B
:10044000280106C0219721F470932B0160932A01A3
:10045000DF91CF91FF90EF90DF90CF90089526E04D
:1004600030E048E650E060E070E080E092DE77CF78
:10047000089526E030E048E650E060E070E080E07B
:1004800088DE80E884B980B3836080BBE8DFE5E084
:10049000F1E080818D7F808378942FEF83ED90E36E
:1004A000215080409040E1F700C0000040E050E063
:1004B00060E070E0CB0198DF41E050E060E070E088
:1004C000CB0192DF2FEF8BE792E9215080409040E3
:1004D000E1F700C0000016DF8A9AF4CF34D008F4A8
:1004E00081E0089504D06894B11174C0089557D084
:1004F00088F09F5790F0B92F9927B751A0F0D1F00D
:10050000660F771F881F991F1AF0BA95C9F712C096
:10051000B13081F05ED0B1E008955BC0672F782FD5
:100520008827B85F39F0B93FCCF386957795679502
:10053000B395D9F73EF490958095709561957F4F6E
:100540008F4F9F4F0895990F0008550FAA0BE0E8B1
:10055000FEEF16161706E807F907C0F01216130685
:10056000E407F50798F0621B730B840B950B39F4C5
:100570000A2661F0232B242B252B21F408950A262B
:1005800009F4A140A6958FEF811D811D089557FDA7
:100590009058440F551F59F05F3F71F04795880FF1
:1005A00097FB991F61F09F3F79F087950895121688
:1005B00013061406551FF2CF4695F1DF08C0161634
:1005C00017061806991FF1CF8695710561050894E5
:1005D0000895E894BB2766277727CB0197F90895FC
:1005E0000BD078C069D028F06ED018F0952309F0B0
:1005F0005AC05FC01124EECFCADFA0F3959FD1F39C
:10060000950F50E0551F629FF001729FBB27F00DC0
:10061000B11D639FAA27F00DB11DAA1F649F662715
:10062000B00DA11D661F829F2227B00DA11D621F64
:10063000739FB00DA11D621F839FA00D611D221F1E
:10064000749F3327A00D611D231F849F600D211D02
:10065000822F762F6A2F11249F5750408AF0E1F0A5
:1006600088234AF0EE0FFF1FBB1F661F771F881FEE
:1006700091505040A9F79E3F510570F014C0AACF89
:100680005F3FECF3983EDCF3869577956795B795D9
:10069000F795E7959F5FC1F7FE2B880F911D969503
:1006A000879597F9089597F99F6780E870E060E073
:1006B00008959FEF80EC089500240A9416161706FB
:1006C00018060906089500240A9412161306140643
:1006D00005060895092E0394000C11F4882352F0A6
:1006E000BB0F40F4BF2B11F460FF04C06F5F7F4F5E
:0A06F0008F4F9F4F0895F894FFCF3D
:00000001FF
