S0110000526F7665722D626F742E7372656393
S113000071C000008EC000008CC000008AC00000D7
S113001088C0000086C0000084C0000082C00000C8
S113002080C000007EC000007CC000007AC00000D8
S113003078C0000094C1000074C0000072C00000C9
S113004070C000006EC000006CC000006AC00000F8
S113005068C0000066C0000064C0000062C0000008
S113006060C000005EC000005CC000005AC0000018
S113007058C0000056C0000054C0000052C0000028
S113008050C000004EC000004CC000004AC0000038
S113009048C0000046C0000044C0000042C0000048
S11300A040C000003FC000003CC000003AC0000057
S11300B038C0000036C0000034C0000032C0000068
S11300C030C000002EC000002CC000002AC0000078
S11300D028C0000026C0000024C0000022C0000088
S11300E020C0000011241FBECFEFD1E2DEBFCDBF80
S11300F000E00CBF12E0A0E0B2E0EAECF3E000E0C4
S11301000BBF02C007900D92A030B107D9F722E0CF
S1130110A0E0B2E001C01D92A731B207E1F7FAD026
S113012052C16ECF1F920F920FB60F9211240BB6CD
S11301300F922F933F938F939F93EF93FF9380910D
S1130140A10086FF28C0E6EAF0E080819181209139
S1130150110230911202821B930B90931002809330
S11301600F028091080290910902821B930B9093D5
S11301700E0280930D0280819181909312028093EC
S11301801102E1EAF0E080818F7B80831092A50068
S11301901092A40012C08091A6009091A7009093A1
S11301A0090280930802E1EAF0E0808180648083A0
S11301B0E2E7F0E080818F7D8083FF91EF919F9152
S11301C08F913F912F910F900BBE0F900FBE0F9008
S11301D01F90189511BA20910202309103023695AE
S11301E0279536952795ABE7B4E1DED096958795AC
S11301F018161906E4F420E030E044E041BB5FEF58
S113020063EC79E0515060407040E1F700C00000B9
S113021011BA5FEF63EC79E0515060407040E1F750
S113022000C000002F5F3F4F8217930739F74CE956
S1130230BC0146039001479F300D112480910202B6
S113024090910302280F391FADECBCECADD096950C
S11302508795969587959695879518161906E4F4CB
S113026020E030E042E041BB7FEF53EC69E07150A5
S113027050406040E1F700C0000011BA7FEF53EC3A
S113028069E0715050406040E1F700C000002F5F0A
S11302903F4F8217930739F74091020250910302AE
S11302A09A01ADECBCEC80D0969587959695879590
S11302B0969587959C01220F331F880F991F880FED
S11302C0991F880F991F820F931F9A01281B390BBE
S11302D0C90111BA18161906E4F420E030E041E02F
S11302E041BB5FEF63EC79E0515060407040E1F74F
S11302F000C0000011BA5FEF63EC79E05150604038
S11303007040E1F700C000002F5F3F4F8217930752
S113031039F70895279A80B3876080BB80E2809381
S1130320720090E49093A10089BB1092A5001092F2
S1130330A4007894109203021092020287E081BB19
S113034080910202909103020097D1F343DF8091E0
S11303500202909103028436910591F7FFCF1F9218
S11303600F920FB60F9211248F939F93AF93BF9365
S11303708091130290911402A0911502B09116027B
S11303800196A11DB11D8093130290931402A093B2
S11303901502B0931602BF91AF919F918F910F9068
S11303A00FBE0F901F901895A29FB001B39FC0017C
S11303B0A39F700D811D1124911DB29F700D811D8D
S10D03C01124911D0895F894FFCF55
S9030000FC
