S0110000526F7665722D626F742E7372656393
S113000071C000008EC000008CC000008AC00000D7
S113001088C0000086C0000084C0000082C00000C8
S113002080C000007EC000007CC000007AC00000D8
S113003078C0000076C0000074C0000072C00000E8
S113004070C000006EC000006CC000006AC00000F8
S113005068C0000066C0000064C0000062C0000008
S113006060C000005EC000005CC000005AC0000018
S113007058C0000056C0000054C0000052C0000028
S113008050C000004EC000004CC000004AC0000038
S113009048C0000046C0000044C0000042C0000048
S11300A040C000003EC000003CC000003AC0000058
S11300B038C0000036C0000034C0000032C0000068
S11300C030C000002EC000002CC000002AC0000078
S11300D028C0000026C0000024C0000022C0000088
S11300E020C0000011241FBECFEFD1E2DEBFCDBF80
S11300F000E00CBF12E0A0E0B2E0EEE2F5E000E0C8
S11301000BBF02C007900D92A030B107D9F722E0CF
S1130110A0E0B2E001C01D92A030B207E1F784D0A4
S113012004C26ECF87B18F6087B9EAE0F1E08081C5
S11301308861808388EE93E0909327018093260161
S1130140109229011092280110922B0110922A0179
S113015080EA80932001E1E2F1E080818261808382
S113016087E080937300439A419A08956130710542
S113017071F4009729F488B1837F88B9439A08956C
S11301800197A1F488B1837F88B9429A0895672BB7
S113019069F4009729F488B18C7F88B9419A08954D
S11301A0019721F488B18C7F88B9409A0895CF9241
S11301B0DF92EF92FF92CF93DF936B017C01EA0110
S11301C020E030E0A901A4D081110FC0C130D105D5
S11301D029F410922901109228011FC0CD2BE9F4B3
S11301E010922B0110922A0118C020E030E04AE757
S11301F053E4C701B6010ED18FD06C507E4FC1308D
S1130200D10529F4709329016093280106C0CD2BF0
S113021021F470932B0160932A01DF91CF91FF9019
S1130220EF90DF90CF9008957DDF41E050E060E0F3
S113023070E080E89FE3BBDF40E050E060E070E006
S113024080E89FE3B4DF24E535E885E491E02150BC
S1130250304080409040D9F700C000C0000041E029
S113026050E060E070E0CB01A2DF40E050E060E0ED
S113027070E0CB019CDF2FEF3BE782E92150304057
S11302808040E1F700C0000060E070E081E090E0B1
S11302906DDF61E070E081E090E068DF41E050E014
S11302A060E070E080E89FE382DF40E050E060E0DF
S11302B070E080E89FE37BDF94E525E835E481E0A6
S11302C09150204030408040D9F700C000C0000069
S11302D041E050E060E070E0CB0169DF40E050E0D5
S11302E060E070E0CB0163DF9FEF2BE732E99150D0
S11302F020403040E1F700C0000060E070E080E0A2
S113030090E034DF61E070E080E090E02FDF8DCF9B
S113031034D008F481E0089504D06894B11174C015
S1130320089557D088F09F5790F0B92F9927B75167
S1130330A0F0D1F0660F771F881F991F1AF0BA95A5
S1130340C9F712C0B13081F05ED0B1E008955BC04E
S1130350672F782F8827B85F39F0B93FCCF386959B
S113036077956795B395D9F73EF4909580957095F8
S113037061957F4F8F4F9F4F0895990F0008550F38
S1130380AA0BE0E8FEEF16161706E807F907C0F017
S113039012161306E407F50798F0621B730B840B1F
S11303A0950B39F40A2661F0232B242B252B21F4F9
S11303B008950A2609F4A140A6958FEF811D811D99
S11303C0089557FD9058440F551F59F05F3F71F041
S11303D04795880F97FB991F61F09F3F79F08795A8
S11303E00895121613061406551FF2CF4695F1DF31
S11303F008C0161617061806991FF1CF86957105C1
S1130400610508940895E894BB2766277727CB01F4
S113041097F908950BD078C069D028F06ED018F001
S1130420952309F05AC05FC01124EECFCADFA0F3B0
S1130430959FD1F3950F50E0551F629FF001729F75
S1130440BB27F00DB11D639FAA27F00DB11DAA1F94
S1130450649F6627B00DA11D661F829F2227B00DE1
S1130460A11D621F739FB00DA11D621F839FA00D6C
S1130470611D221F749F3327A00D611D231F849FBC
S1130480600D211D822F762F6A2F11249F57504013
S11304908AF0E1F088234AF0EE0FFF1FBB1F661FAE
S11304A0771F881F91505040A9F79E3F510570F067
S11304B014C0AACF5F3FECF3983EDCF386957795A2
S11304C06795B795F795E7959F5FC1F7FE2B880F62
S11304D0911D9695879597F9089597F99F6780E8F8
S11304E070E060E008959FEF80EC089500240A9482
S11304F01616170618060906089500240A941216FB
S11305001306140605060895092E0394000C11F42D
S1130510882352F0BB0F40F4BF2B11F460FF04C0DA
S11105206F5F7F4F8F4F9F4F0895F894FFCF6A
S9030000FC
