:1000000071C000008EC000008CC000008AC00000DB
:1000100088C0000086C0000084C0000082C00000CC
:1000200080C000007EC000003DC100007AC000001A
:1000300078C0000012C1000074C0000072C000004F
:1000400070C000006EC000006CC000006AC00000FC
:1000500068C0000066C0000064C0000062C000000C
:1000600060C000005EC000005CC000005AC000001C
:1000700058C0000056C0000054C0000052C000002C
:1000800050C000004EC000004CC000004AC000003C
:1000900048C0000046C0000044C0000042C000004C
:1000A00040C000003EC000003CC000003AC000005C
:1000B00038C0000036C0000034C0000032C000006C
:1000C00030C000002EC000002CC000002AC000007C
:1000D00028C0000026C0000024C0000022C000008C
:1000E00020C0000011241FBECFEFD1E2DEBFCDBF84
:1000F00000E00CBF12E0A0E0B2E0E8E8F9E000E0C8
:100100000BBF02C007900D92A230B107D9F722E0D1
:10011000A2E0B2E001C01D92A832B207E1F74DD2D1
:1001200031C46ECF813071F028F0823099F0833085
:10013000C9F020C08091C0008823FCF48091C600E3
:1001400090E008958091C8008823D4F48091CE0077
:1001500090E008958091D0008823ACF48091D6007F
:1001600090E0089580913001882384F480913601D5
:1001700090E008958FEF9FEF08958FEF9FEF089520
:100180008FEF9FEF08958FEF9FEF08958FEF9FEF11
:100190000895813091F028F08230D9F0833029F130
:1001A0002FC0E1ECF0E09081986190832093C20031
:1001B0005093C5004093C40023C02093CA00E9ECCB
:1001C000F0E09081986190835093CD004093CC00F3
:1001D00017C02093D200E1EDF0E090819861908308
:1001E0005093D5004093D4000BC020933201E1E33B
:1001F000F1E09081986190835093350140933401F0
:1002000091CF0895609110027091110280911202B5
:1002100090911302089581E090E0909303028093FF
:100220000202109210021092110210921202109209
:100230001302E0EBF0E0808180688083E1EBF0E086
:1002400080818D608083E0E7F0E080818260808340
:10025000809100028093B30008951F920F920FB611
:100260000F9211248F939F93AF93BF9380911002AD
:1002700090911102A0911202B09113020196A11D5A
:10028000B11D8093100290931102A0931202B093BB
:100290001302BF91AF919F918F910F900FBE0F905E
:1002A0001F9018951F920F920FB60F9211240BB644
:1002B0000F928F929F92AF92BF92EF92FF920F9305
:1002C0001F932F933F934F935F936F937F938F93DE
:1002D0009F93AF93BF93CF93DF93EF93FF93E3E0AD
:1002E000F1E0E080F12C80910402909105028E25CE
:1002F0009F2581BB0081026010E0C081C160D0E019
:1003000091B381E0892781BB809106029091070219
:10031000A0910802B09109020196A11DB11D809320
:10032000060290930702A0930802B093090291B3CA
:1003300082E0892781BB80910A0290910B02A091F3
:100340000C02B0910D020196A11DB11D80930A020D
:1003500090930B02A0930C02B0930D024091060201
:100360005091070260910802709109028417950765
:10037000A607B707A4F560910E0270910F02072E31
:10038000000C880B990BEBD12DEC3CEC4CEC5DE3B5
:100390004BD1B2D170930F0260930E02072E000C66
:1003A000880B990BDCD14B015C0120E030E0A90106
:1003B0009FD1811105C0109229011092280147C0D8
:1003C00020E030E048EC53E4C501B40178D294D188
:1003D00060577E4F709329016093280138C04817F9
:1003E00059076A077B079CF560910E0270910F0216
:1003F000072E000C880B990BB2D12DEC3CEC4CEC89
:100400005DE311D179D170930F0260930E02072E34
:10041000000C880B990BA3D14B015C0120E030E06C
:10042000A90166D1811105C01092290110922801FD
:100430000EC020E030E048EC53E4C501B4013FD2E7
:100440005BD160577E4F7093290160932801109310
:10045000150200931402D0932302C0932202F0925B
:100460000502E0920402FF91EF91DF91CF91BF91DD
:10047000AF919F918F917F916F915F914F913F913C
:100480002F911F910F91FF90EF90BF90AF909F9091
:100490008F900F900BBE0F900FBE0F901F9018956E
:1004A00087B18F6087B9EAE0F1E08081886180835D
:1004B000109216021092170210921802109219024E
:1004C00010921A0210921B0210921C0210921D022E
:1004D00088EE93E0909327018093260110922901E2
:1004E0001092280110922B0110922A01E0E2F1E013
:1004F0008081806A8083E1E2F1E080818261808393
:10050000439A409AE5E0F1E080818C7F8083ECE6BD
:10051000F0E0808182608083808184608083E8E66F
:10052000F0E08081826080830895CF92DF92EF9225
:10053000FF92CF93DF936B017C01EA0120E030E072
:10054000A901D6D081110FC0C130D10529F4109274
:100550002901109228011FC0CD2BE9F410922B0124
:1005600010922A0118C020E030E048EC53E4C701A3
:10057000B601A5D1C1D060577E4FC130D10529F455
:10058000709329016093280106C0CD2B21F470934C
:100590002B0160932A01DF91CF91FF90EF90DF90C4
:1005A000CF90089538DE26E030E048E650E060E085
:1005B00070E080E0EEDD74CF089526E030E048E69C
:1005C00050E060E070E080E0E4DD80E884B980B372
:1005D000836080BBE7DFE5E0F1E080818D7F808391
:1005E00078942FEF83ED90E3215080409040E1F725
:1005F00000C0000041E050E06AE979E989E19FE349
:1006000094DF40E050E06AE979E989E19FE38DDF1A
:10061000F9DD2FEF81EE94E0215080409040E1F72A
:1006200000C00000F5CF5058BB27AA270ED00DC13F
:10063000FED030F003D120F031F49F3F11F41EF4CE
:10064000F3C00EF4E095E7FBE9C0E92F0FD180F38A
:10065000BA17620773078407950718F071F49EF5BF
:1006600027C10EF4E0950B2EBA2FA02D0B01B90176
:1006700090010C01CA01A0011124FF27591B99F018
:10068000593F50F4503E68F11A16F040A22F232F24
:10069000342F4427585FF3CF469537952795A79574
:1006A000F0405395C9F77EF41F16BA0B620B730B1B
:1006B000840BBAF09150A1F0FF0FBB1F661F771F8C
:1006C000881FC2F70EC0BA0F621F731F841F48F441
:1006D000879577956795B795F7959E3F08F0B3CFC7
:1006E0009395880F08F09927EE0F979587950895B1
:1006F00071D008F481E0089504D06894B111D9C094
:100700000895BCD088F09F5790F0B92F9927B75122
:10071000A0F0D1F0660F771F881F991F1AF0BA95C5
:10072000C9F712C0B13081F0C3D0B1E00895C0C0A4
:10073000672F782F8827B85F39F0B93FCCF38695BB
:1007400077956795B395D9F73EF490958095709518
:1007500061957F4F8F4F9F4F0895E89409C097FB95
:100760003EF490958095709561957F4F8F4F9F4F88
:100770009923A9F0F92F96E9BB279395F6958795CC
:1007800077956795B795F111F8CFFAF4BB0F11F48F
:1007900060FF1BC06F5F7F4F8F4F9F4F16C0882336
:1007A00011F096E911C0772321F09EE8872F762F6C
:1007B00005C0662371F096E8862F70E060E02AF0AD
:1007C0009A95660F771F881FDAF7880F9695879599
:1007D00097F90895990F0008550FAA0BE0E8FEEF6E
:1007E00016161706E807F907C0F012161306E407F5
:1007F000F50798F0621B730B840B950B39F40A26EE
:1008000061F0232B242B252B21F408950A2609F4CB
:10081000A140A6958FEF811D811D089597F99F67CF
:1008200080E870E060E008959FEF80EC0895002478
:100830000A941616170618060906089500240A9445
:1008400012161306140605060895092E0394000CCB
:1008500011F4882352F0BB0F40F4BF2B11F460FF5A
:1008600004C06F5F7F4F8F4F9F4F089557FD905883
:10087000440F551F59F05F3F71F04795880F97FB64
:10088000991F61F09F3F79F087950895121613061E
:100890001406551FF2CF4695F1DF08C0161617064D
:1008A0001806991FF1CF8695710561050894089582
:1008B000E894BB2766277727CB0197F908950BD0DB
:1008C000C4CFB5DF28F0BADF18F0952309F0A6CF22
:1008D000ABCF1124EECFCADFA0F3959FD1F3950FD4
:1008E00050E0551F629FF001729FBB27F00DB11DB4
:1008F000639FAA27F00DB11DAA1F649F6627B00D44
:10090000A11D661F829F2227B00DA11D621F739F2C
:10091000B00DA11D621F839FA00D611D221F749F3A
:100920003327A00D611D231F849F600D211D822F81
:10093000762F6A2F11249F5750408AF0E1F08823C8
:100940004AF0EE0FFF1FBB1F661F771F881F9150D5
:100950005040A9F79E3F510570F060CFAACF5F3F8E
:10096000ECF3983EDCF3869577956795B795F79508
:10097000E7959F5FC1F7FE2B880F911D9695879590
:0809800097F90895F894FFCFE8
:02098800093D27
:00000001FF
