S0110000526F7665722D626F742E7372656393
S113000071C000008EC000008CC000008AC00000D7
S113001088C0000086C0000084C0000082C00000C8
S113002080C000007EC000003DC200008BC0000004
S113003078C00000CDC0000074C0000072C0000091
S113004070C000006EC000006CC000006AC00000F8
S113005068C0000066C0000064C0000062C0000008
S113006060C000005EC000005CC000005AC0000018
S113007058C0000056C0000054C0000052C0000028
S113008050C000004EC000004CC000004AC0000038
S113009048C0000046C0000044C0000042C0000048
S11300A040C000003EC000003CC000003AC0000058
S11300B038C0000036C0000034C0000032C0000068
S11300C030C000002EC000002CC000002AC0000078
S11300D028C0000026C0000024C0000022C0000088
S11300E020C0000011241FBECFEFD1E2DEBFCDBF80
S11300F000E00CBF12E0A0E0B2E0ECE0F8E000E0C9
S11301000BBF02C007900D92A030B107D9F722E0CF
S1130110A0E0B2E001C01D92AE31B207E1F718D2FF
S113012073C36ECFE7E0F1E080818C7F808380B37E
S1130130836080BB84E08093680083E080BB80930D
S11301406D0008951F920F920FB60F9211240BB6F3
S11301500F922F933F934F935F936F937F938F935C
S11301609F93AF93BF93EF93FF938091060180FF1A
S113017008C08091060181FD04C08BEF9FEF22D15E
S113018014C08091060181FF08C08091060180FDA2
S113019004C085E090E016D108C08091060180FF7C
S11301A004C08091060181FDD0D0FF91EF91BF91F1
S11301B0AF919F918F917F916F915F914F913F91FB
S11301C02F910F900BBE0F900FBE0F901F9018959C
S11301D01F920F920FB60F9211248F939F93AF9398
S11301E0BF938091060290910702A0910802B091FA
S11301F009020196A11DB11D809306029093070286
S1130200A0930802B0930902BF91AF919F918F917F
S11302100F900FBE0F901F901895CF92DF92EF9220
S1130220FF926B017C01F89420E030E0A901B8D181
S1130230811109C0109229011092280110922B01FA
S113024010922A0115C020E030E048EC53E4C701C5
S1130250B60128D2A9D19B0120573E4F30932901E2
S11302602093280167557E4F70932B0160932A01D8
S11302707894FF90EF90DF90CF90089587B18F60CE
S113028087B9EAE0F1E080818861808310920C02F2
S113029010920D0210920E0210920F021092100290
S11302A010921102109212021092130288EE93E03F
S11302B0909327018093260110922901109228011E
S11302C010922B0110922A01E0E2F1E08081806A11
S11302D08083E1E2F1E0808182618083439A409AE5
S11302E0E5E0F1E080818C7F8083ECE6F0E08081C2
S11302F082608083808184608083E8E6F0E080818E
S11303008260808308956115710571F4009729F462
S113031088B1837F88B9439A08950197A9F488B175
S1130320837F88B9429A08956130710569F4009712
S113033029F488B18C7F88B9409A0895019721F4F3
S113034088B18C7F88B9419A089560E070E080E0BC
S113035090E0D9DF61E070E080E090E0D4DF60E01D
S113036070E0CB015ACF089560E070E080E090E047
S1130370CADF61E070E081E090E0C5DF88EA92E0E6
S1130380909329018093280181EC92E090932B01B2
S113039080932A01089560E070E081E090E0B3DF8B
S11303A061E070E080E090E0AEDF88EA92E0909354
S11303B029018093280181EC92E090932B01809392
S11303C02A010895CF93DF93EC01BFDFF8941C1644
S11303D01D0614F4C9DF01C0DEDF1092050210927D
S11303E004021092030210920202789422E32C9FDA
S11303F0C0012D9F900D11246AE570E0DED180913B
S1130400040290910502861797075CF424E081B3F7
S1130410822781BB80910402909105028617970779
S1130420B4F393DFDF91CF910895CF92DF92EF92EF
S1130430FF92CF93DF936B017C01EA0120E030E06F
S1130440A901AED081110EC0209729F41092290180
S11304501092280120C02197F1F410922B011092E0
S11304602A0119C020E030E048EC53E4C701B6018A
S113047019D19AD0209739F460577E4F709329018F
S11304806093280108C0219731F467557E4F70931B
S11304902B0160932A01DF91CF91FF90EF90DF90C1
S11304A0CF9008951F920F920FB60F9211240BB69E
S11304B00F922F933F934F935F936F937F938F93F9
S11304C09F93EF93FF93E3E0F1E0408150E080914C
S11304D00002909101028427952781BB20818081AD
S11304E060910202709103026F5F7F4F7093030269
S11304F06093020260910402709105026F5F7F4F66
S11305007093050260930402226030E030930B0282
S113051020930A02816090E090931902809318025C
S11305205093010240930002FF91EF919F918F91AC
S11305307F916F915F914F913F912F910F900BBEDF
S11305400F900FBE0F901F901895ECDD97CE089575
S113055080E884B9FADF78942FEF83ED90E321509B
S113056080409040E1F700C0000040E050E060E0CF
S113057070E0CB015ADF41E050E060E070E0CB0175
S113058054DF2FEF8BE792E9215080409040E1F750
S113059000C0000060E070E080E09FE33EDEF1CF49
S11305A034D008F481E0089504D06894B11174C083
S11305B0089557D088F09F5790F0B92F9927B751D5
S11305C0A0F0D1F0660F771F881F991F1AF0BA9513
S11305D0C9F712C0B13081F05ED0B1E008955BC0BC
S11305E0672F782F8827B85F39F0B93FCCF3869509
S11305F077956795B395D9F73EF490958095709566
S113060061957F4F8F4F9F4F0895990F0008550FA5
S1130610AA0BE0E8FEEF16161706E807F907C0F084
S113062012161306E407F50798F0621B730B840B8C
S1130630950B39F40A2661F0232B242B252B21F466
S113064008950A2609F4A140A6958FEF811D811D06
S1130650089557FD9058440F551F59F05F3F71F0AE
S11306604795880F97FB991F61F09F3F79F0879515
S11306700895121613061406551FF2CF4695F1DF9E
S113068008C0161617061806991FF1CF869571052E
S1130690610508940895E894BB2766277727CB0162
S11306A097F908950BD078C069D028F06ED018F06F
S11306B0952309F05AC05FC01124EECFCADFA0F31E
S11306C0959FD1F3950F50E0551F629FF001729FE3
S11306D0BB27F00DB11D639FAA27F00DB11DAA1F02
S11306E0649F6627B00DA11D661F829F2227B00D4F
S11306F0A11D621F739FB00DA11D621F839FA00DDA
S1130700611D221F749F3327A00D611D231F849F29
S1130710600D211D822F762F6A2F11249F57504080
S11307208AF0E1F088234AF0EE0FFF1FBB1F661F1B
S1130730771F881F91505040A9F79E3F510570F0D4
S113074014C0AACF5F3FECF3983EDCF3869577950F
S11307506795B795F795E7959F5FC1F7FE2B880FCF
S1130760911D9695879597F9089597F99F6780E865
S113077070E060E008959FEF80EC089500240A94EF
S11307801616170618060906089500240A94121668
S11307901306140605060895092E0394000C11F49B
S11307A0882352F0BB0F40F4BF2B11F460FF04C048
S11307B06F5F7F4F8F4F9F4F089597FB072E16F45F
S11307C0009406D077FD08D00BD007FC05D03EF48A
S11307D0909581959F4F0895709561957F4F0895E9
S11307E0AA1BBB1B51E107C0AA1FBB1FA617B70753
S11307F010F0A61BB70B881F991F5A95A9F780956F
S10F08009095BC01CD010895F894FFCF41
S9030000FC
