S0110000526F7665722D626F742E7372656393
S113000071C0000081C000007FC000007DC00000FE
S11300107BC0000079C0000077C0000075C00000FC
S113002073C0000071C000006FC000006DC000000C
S11300306BC0000069C0000067C0000065C000001C
S113004063C0000061C000005FC000005DC000002C
S11300505BC0000059C0000057C0000055C000003C
S113006053C0000051C000004FC000004DC000004C
S11300704BC0000049C0000047C0000045C000005C
S113008043C0000041C000003FC000003DC000006C
S11300903BC0000039C0000037C0000035C000007C
S11300A033C000005AC000002FC000002DC0000063
S11300B02BC0000029C0000027C0000025C000009C
S11300C023C0000021C000001FC000001DC00000AC
S11300D01BC0000019C0000017C0000015C00000BC
S11300E013C0000011241FBECFEFD1E2DEBFCDBF8D
S11300F000E00CBF22E0A0E0B2E001C01D92A030FD
S1130100B207E1F702D04AC07BCF279A80B3876059
S113011080BBE2E7F0E0808180628083E1EAF0E086
S11301208081806C8083789481B3876081BBEBE0AD
S1130130F1E097E0808180FFFDCF80818160808342
S113014081B3892781BB2FEF33ED80E32150304009
S11301508040E1F700C00000EDCF1F920F920FB670
S11301600F9211240BB60F928F93EF93FF9381B3E9
S1130170887F81BB2F9A1092A5001092A400E1EA17
S1130180F0E080818F7B8083FF91EF918F910F90BE
S11301900BBE0F900FBE0F901F901895F894FFCFD1
S9030000FC
