S0110000526F7665722D626F742E7372656393
S113000071C000008EC000008CC000008AC00000D7
S113001088C0000086C0000084C0000082C00000C8
S113002080C000007EC000001AC3000019C1000097
S113003078C0000087C1000074C0000072C00000D6
S113004070C000006EC000006CC000006AC00000F8
S113005068C0000054C5000064C0000062C0000015
S113006060C000005EC000005CC000005AC0000018
S113007058C0000056C0000054C0000052C0000028
S113008050C000004EC000004CC000004AC0000038
S113009048C0000046C0000044C0000042C0000048
S11300A040C000003EC000003CC000003AC0000058
S11300B038C0000036C0000034C0000032C0000068
S11300C030C000002EC000002CC000002AC0000078
S11300D028C0000026C0000024C0000022C0000088
S11300E020C0000011241FBECFEFD1E2DEBFCDBF80
S11300F000E00CBF12E0A0E0B2E0E6E5FCE000E0C6
S11301000BBF02C007900D92A031B107D9F72AE0C6
S1130110A0E1B2E001C01D92A137B207E1F7FFD21E
S113012098C56ECF2F923F924F925F926F927F92BB
S11301308F929F92AF92BF92CF92DF92EF92FF92F3
S11301400F931F93CF93DF9320913C023091700A59
S1130150F894EDB6FEB67894EEE3F2E0220FC0E038
S1130160D2E0C20FD11D1991D881C12F18811A3A3A
S113017021F080913C02912D0EC5220FE20FF11D5A
S1130180E192F08220916F0A30913D0240915E022B
S1130190232B242B30913C024091700A68E0889410
S11301A033953770441F411D742F422319F06A950B
S11301B0B9F7E8CF30933C027093700AEEE3F2E0B3
S11301C0330F330FE30FF11D21913081F8942DBFCC
S11301D03EBF7894DF91CF911F910F91FF90EF90E4
S11301E0DF90CF90BF90AF909F908F907F906F9053
S11301F05F90852D4F90942D3F90632D2F90722DFD
S11302000895EEE0F2E0E80FF11D849108950102F3
S11302100408102040805298E8E6F0E08081846071
S11302208083EDE6F0E080818360808385B7816020
S113023085BF1092800008952FEF8AE693E0215045
S113024080409040E1F700C00000589A20E42A95CD
S1130250F1F71BB8809112029091130263DFF5CF7E
S11302601F920F920FB60F9211240BB60F928F9319
S11302709F93EF93FF9391B381E0892781BB809192
S1130280100290911102019781F410928100E4E828
S1130290F0E0808191819093130280931202118285
S11302A0108210921102109210028091100290910B
S11302B01102892B59F4E1E8F0E0808181608083A8
S11302C081E090E09093110280931002FF91EF91EE
S11302D09F918F910F900BBE0F900FBE0F901F90A8
S11302E0189580B38F7380BB80B3836080BB0895FF
S11302F0C1E0D0E0FFD1019619F17E9B06C07F9941
S113030004C08BEF9FEF21D11BC07F9B06C07E9959
S113031004C085E090E019D113C07E9B02C07F9990
S11303200BC0CFD08091140290911502892B41F01B
S11303308FEF9FEFE4D104C0D0931502C093140251
S1130340F1DED8CF1F920F920FB60F9211248F9324
S11303509F93AF93BF938091220290912302A09127
S11303602402B09125020196A11DB11D80932202A1
S113037090932302A0932402B0932502BF91AF91DE
S11303809F918F910F900FBE0F901F90189561153C
S1130390710571F4009729F488B1837F88B9439A71
S11303A008950197A9F488B1837F88B9429A089582
S11303B06130710569F4009729F488B18C7F88B99C
S11303C0409A0895019721F488B18C7F88B9419AA5
S11303D00895CF92DF92EF92FF92CF93DF936B0158
S11303E07C01EA01F89420E030E0A901B1D1811147
S11303F00EC0209729F4109229011092280130C0D0
S1130400219771F510922B0110922A0129C020E046
S113041030E048EC53E4C701B6011CD29DD16057CB
S11304207E4F209771F416161706D4F480E090E0FE
S1130430E8E2F1E091838083019686179707D4F36D
S11304400FC0219769F41616170654F480E090E063
S1130450EAE2F1E091838083019686179707D4F34B
S113046010922501109224017894DF91CF91FF908E
S1130470EF90DF90CF900895CF92DF92EF92FF92AA
S11304806B017C01F89440E050E0A3DF41E050E0D0
S1130490C701B6019EDF7894FF90EF90DF90CF9074
S11304A0089528D1019759F480911C0290911D025E
S11304B0892B29F46DEC7CEC8CE49EE3DDDF32DEE9
S11304C0F0CF80E090E01BD160E070E080E090E04D
S11304D05EDF61E070E080E090E059DF60E070E0B2
S11304E0CB01CACF089560E070E080E090E04FDF78
S11304F061E070E081E090E04ADF40E050E060E0DD
S113050070E080E09FE365DF41E050E060E070E090
S113051080E09FE35ECF089560E070E081E090E0CA
S113052036DF61E070E080E090E031DF40E050E0F1
S113053060E070E080E09FE34CDF41E050E060E089
S113054070E080E09FE345CF08950F931F93CF930E
S1130550DF938C01CFD0EC01B4DF82E090E0CFD008
S1130560F8941016110614F4BEDF04C01195019519
S11305701109D2DF10921B0210921A021092190272
S113058010921802789429E1209FC001219F900DB8
S113059011246AE570E036D380911A0290911B020F
S11305A0861797075CF424E081B3822781BB80918E
S11305B01A0290911B0286179707B4F382DFCE01CB
S11305C09ED0DF91CF911F910F91089587B18F60D5
S11305D087B9EAE0F1E08081886180831092280283
S11305E01092290210922A0210922B0210922C02CD
S11305F010922D0210922E0210922F0288EE93E098
S1130600909327018093260140E050E060E070E081
S1130610CB01DFDE41E050E060E070E0CB01D9DEE9
S1130620E0E2F1E08081806A8083E1E2F1E08081B0
S113063082618083439A409AE5E0F1E080818C7F77
S11306408083ECE6F0E08081826080838081846036
S11306508083E8E6F0E080818260808308951F92C1
S11306600F920FB60F9211240BB60F922F933F9354
S11306704F936F937F938F939F93EF93FF93E3E055
S1130680F1E040812081808160911802709119020B
S11306906F5F7F4F709319026093180260911A0282
S11306A070911B026F5F7F4F70931B0260931A025D
S11306B0226030E03093270220932602816090E08C
S11306C09093350280933402842F90E09093170224
S11306D080931602FF91EF919F918F917F916F917B
S11306E04F913F912F910F900BBE0F900FBE0F9023
S11306F01F90189580913A0290913B02089590932F
S11307003B0280933A02089581E090E090933B028B
S113071080933A02E6DD5ADF7EDD78940895F4DFB3
S113072061D188EE93E0D5D141E050E061E572E01B
S113073082E01BD141E050E068E771E081E015D12F
S113074041E050E06CE171E083E00FD1EBDCFECFDF
S113075034D008F481E0089504D06894B11174C0D1
S1130760089557D088F09F5790F0B92F9927B75123
S1130770A0F0D1F0660F771F881F991F1AF0BA9561
S1130780C9F712C0B13081F05ED0B1E008955BC00A
S1130790672F782F8827B85F39F0B93FCCF3869557
S11307A077956795B395D9F73EF4909580957095B4
S11307B061957F4F8F4F9F4F0895990F0008550FF4
S11307C0AA0BE0E8FEEF16161706E807F907C0F0D3
S11307D012161306E407F50798F0621B730B840BDB
S11307E0950B39F40A2661F0232B242B252B21F4B5
S11307F008950A2609F4A140A6958FEF811D811D55
S1130800089557FD9058440F551F59F05F3F71F0FC
S11308104795880F97FB991F61F09F3F79F0879563
S11308200895121613061406551FF2CF4695F1DFEC
S113083008C0161617061806991FF1CF869571057C
S1130840610508940895E894BB2766277727CB01B0
S113085097F908950BD078C069D028F06ED018F0BD
S1130860952309F05AC05FC01124EECFCADFA0F36C
S1130870959FD1F3950F50E0551F629FF001729F31
S1130880BB27F00DB11D639FAA27F00DB11DAA1F50
S1130890649F6627B00DA11D661F829F2227B00D9D
S11308A0A11D621F739FB00DA11D621F839FA00D28
S11308B0611D221F749F3327A00D611D231F849F78
S11308C0600D211D822F762F6A2F11249F575040CF
S11308D08AF0E1F088234AF0EE0FFF1FBB1F661F6A
S11308E0771F881F91505040A9F79E3F510570F023
S11308F014C0AACF5F3FECF3983EDCF3869577955E
S11309006795B795F795E7959F5FC1F7FE2B880F1D
S1130910911D9695879597F9089597F99F6780E8B3
S113092070E060E008959FEF80EC089500240A943D
S11309301616170618060906089500240A941216B6
S11309401306140605060895092E0394000C11F4E9
S1130950882352F0BB0F40F4BF2B11F460FF04C096
S11309606F5F7F4F8F4F9F4F0895CF93DF93C82FB3
S1130970D42FE82FF0E0EE0FFF1FEE0FFF1F9F01B3
S1130980225C3D4FF901A281B3816C93CD010197A3
S1130990FC0170830197FC0110825597F901B18322
S11309A0A0838C2F2EDCDD2339F0809590916F0A83
S11309B0892380936F0A05C090916F0A892B8093D5
S11309C06F0A80913C02C81301C0DCDBDF91CF9138
S11309D0089582E084BD9AEF97BD80936E0083E012
S11309E085BD0895CF93DF93F8948EEF80936F0ABB
S11309F010925E0210923D0210923C0281E08093BC
S1130A00700ACEE3D2E08EE593E0998388839B83DA
S1130A108A838EE594E09D838C839F838E838EE509
S1130A2095E0998788879B878A878EE596E09D87DE
S1130A308C879F878E878EE597E0998B888B9B8B1D
S1130A408A8B8EE598E09D8B8C8B9F8B8E8B8EE5AD
S1130A5099E0998F888F9B8F8A8F8EE59AE09D8F7E
S1130A608C8F9F8F8E8F8AEA80935F0280935F03BF
S1130A7080935F0480935F0580935F0680935F0794
S1130A8080935F0880935F09A4DFEDB7FEB7A88168
S1130A90B98185818C93A881B981848111978C93C4
S1130AA0A881B981838112978C93A881B9818281AD
S1130AB013978C93888199812181FC013497208339
S1130AC08881998105979EBF8DBF7894DF91CF91DE
S1130AD008959C019FB7F894E0913C02F0E0EE0F7A
S1130AE0FF1FE15AF54F3183208320913D0280910D
S1130AF0700A822B80933D029FBF14CB08951F92EE
S1130B000F920FB60F9211240BB60F922F933F93AF
S1130B104F935F938F939F93AF93BF93EF93FF9301
S1130B2080911E0290911F02A0912002B091210297
S1130B300196A11DB11D80931E0290931F02A093E4
S1130B402002B093210230913D02EFE5FAE04FE636
S1130B505AE021E080819181019781939193892BBF
S1130B6019F4822F80953823220FE417F50791F7A3
S1130B7030933D02FF91EF91BF91AF919F918F917F
S1130B805F914F913F912F910F900BBE0F900FBE2D
S1130B900F901F901895AC01279A2F982FEF61EEB4
S1130BA084E0215060408040E1F700C000005523FC
S1130BB0FCF020E030E095B1905895B99FEF60E7E4
S1130BC082E0915060408040E1F700C0000095B1A0
S1130BD0905895B99FEF69E688E191506040804054
S1130BE0E1F700C000002F5F3F4F421753071CF787
S1130BF09FEF23E264EF915020406040E1F700C092
S1130C000000D5CF97FB072E16F4009406D077FD8D
S1130C1008D00BD007FC05D03EF4909581959F4FEA
S1130C200895709561957F4F0895AA1BBB1B51E1F0
S1130C3007C0AA1FBB1FA617B70710F0A61BB70B48
S1130C40881F991F5A95A9F780959095BC01CD01ED
S1090C500895F894FFCFA3
S1130C565F025F035F045F055F065F075F085F0966
S9030000FC
