:1000000071C000008EC000008CC000008AC00000DB
:1000100088C0000086C0000084C0000082C00000CC
:1000200080C000007EC00000A9C2000005C1000021
:1000300078C0000047C1000074C0000072C000001A
:1000400070C000006EC000006CC000006AC00000FC
:1000500068C00000C7C4000064C0000062C00000A7
:1000600060C000005EC000005CC000005AC000001C
:1000700058C0000056C0000054C0000052C000002C
:1000800050C000004EC000004CC000004AC000003C
:1000900048C0000046C0000044C0000042C000004C
:1000A00040C000003EC000003CC000003AC000005C
:1000B00038C0000036C0000034C0000032C000006C
:1000C00030C000002EC000002CC000002AC000007C
:1000D00028C0000026C0000024C0000022C000008C
:1000E00020C0000011241FBECFEFD1E2DEBFCDBF84
:1000F00000E00CBF12E0A0E0B2E0ECE3FBE000E0C7
:100100000BBF02C007900D92A031B107D9F72AE0CA
:10011000A0E1B2E001C01D92A736B207E1F784D298
:100120000BC56ECF2F923F924F925F926F927F924C
:100130008F929F92AF92BF92CF92DF92EF92FF92F7
:100140000F931F93CF93DF93209132023091660A71
:10015000F894EDB6FEB67894E4E3F2E0220FC0E046
:10016000D2E0C20FD11D1991D881C12F18811A3A3E
:1001700021F080913202912D81C4220FE20FF11DF6
:10018000E192F0822091650A30913302409154024D
:10019000232B242B309132024091660A68E0889428
:1001A00033953770441F411D742F422319F06A950F
:1001B000B9F7E8CF309332027093660AE4E3F2E0D5
:1001C000330F330FE30FF11D21913081F8942DBFD0
:1001D0003EBF7894DF91CF911F910F91FF90EF90E8
:1001E000DF90CF90BF90AF909F908F907F906F9057
:1001F0005F90852D4F90942D3F90632D2F90722D01
:100200000895EEE0F2E0E80FF11D849108950102F7
:10021000040810204080E7E0F1E080818C7F80833B
:1002200080B3836080BB84E08093680083E080BB00
:1002300080936D00089508951F920F920FB60F924C
:1002400011240BB60F922F933F934F935F936F93AD
:100250007F938F939F93AF93BF93EF93FF9380917F
:10026000060180FF08C08091060181FD04C08BEF6C
:100270009FEF08D114C08091060181FF08C08091D2
:10028000060180FD04C085E090E0FCD008C08091AC
:10029000060180FF04C08091060181FDB2D0FF916C
:1002A000EF91BF91AF919F918F917F916F915F91EE
:1002B0004F913F912F910F900BBE0F900FBE0F905B
:1002C0001F9018951F920F920FB60F9211248F93C3
:1002D0009F93AF93BF9380911A0290911B02A091BC
:1002E0001C02B0911D020196A11DB11D80931A023E
:1002F00090931B02A0931C02B0931D02BF91AF917B
:100300009F918F910F900FBE0F901F9018956115C0
:10031000710571F4009729F488B1837F88B9439AF5
:1003200008950197A9F488B1837F88B9429A089506
:100330006130710569F4009729F488B18C7F88B920
:10034000409A0895019721F488B18C7F88B9419A29
:100350000895CF92DF92EF92FF92CF93DF936B01DC
:100360007C01EA01F89420E030E0A9017AD1811102
:100370000EC0209729F4109229011092280120C064
:100380002197F1F410922B0110922A0119C020E05C
:1003900030E048EC53E4C701B601E5D166D12097BF
:1003A00039F460577E4F709329016093280108C08B
:1003B000219731F467557E4F70932B0160932A018A
:1003C00010922501109224017894DF91CF91FF9033
:1003D000EF90DF90CF900895CF92DF92EF92FF924F
:1003E0006B017C01F89440E050E0B3DF41E050E065
:1003F000C701B601AEDF7894FF90EF90DF90CF9009
:10040000089560E070E080E090E081DF61E070E0FE
:1004100080E090E07CDF60E070E0CB01DDCF08950C
:1004200060E070E080E090E072DF61E070E081E029
:1004300090E06DDF40E050E063E373E383E39FE32C
:1004400088DF41E050E063E373E383E39FE381CF20
:10045000089560E070E081E090E059DF61E070E0D5
:1004600080E090E054DF40E050E063E373E383E337
:100470009FE36FDF41E050E063E373E383E39FE3D7
:1004800068CF0895CF93DF93EC01BBDFF8941C167F
:100490001D0614F4C5DF01C0DCDF109215021092B6
:1004A00014021092130210921202789422E32C9FED
:1004B000C0012D9F900D11246AE570E016D3809144
:1004C000140290911502861797075CF424E081B31B
:1004D000822781BB8091140290911502861797079D
:1004E000B4F38FDFDF91CF91089587B18F6087B923
:1004F000EAE0F1E08081886180831092200210920E
:1005000021021092220210922302109224021092D1
:100510002502109226021092270288EE93E0909313
:1005200027018093260140E050E060E070E0CB01BD
:1005300010DF41E050E060E070E0CB010ADFE0E274
:10054000F1E08081806A8083E1E2F1E08081826174
:100550008083439A409AE5E0F1E080818C7F80833C
:10056000ECE6F0E08081826080838081846080831B
:10057000E8E6F0E080818260808308951F920F9208
:100580000FB60F9211240BB60F922F933F934F93F8
:100590005F936F937F938F939F93EF93FF93E3E02A
:1005A000F1E0408150E08091100290911102842787
:1005B000952781BB20818081609112027091130286
:1005C0006F5F7F4F70931302609312026091140269
:1005D000709115026F5F7F4F709315026093140244
:1005E000226030E030931F0220931E02816090E071
:1005F00090932D0280932C0250931102409310028D
:10060000FF91EF919F918F917F916F915F914F91AA
:100610003F912F910F900BBE0F900FBE0F901F9028
:100620001895F9DD62CF089566D141E050E06BE1A5
:1006300071E081E023D180E884B9F3DF789440E071
:1006400050E060E070E0CB0184DE41E050E060E02B
:1006500070E0CB017EDE60E070E080E09FE3BCDE16
:10066000FACF34D008F481E0089504D06894B11131
:1006700074C0089557D088F09F5790F0B92F9927EC
:10068000B751A0F0D1F0660F771F881F991F1AF09D
:10069000BA95C9F712C0B13081F05ED0B1E00895CB
:1006A0005BC0672F782F8827B85F39F0B93FCCF34C
:1006B000869577956795B395D9F73EF49095809593
:1006C000709561957F4F8F4F9F4F0895990F000848
:1006D000550FAA0BE0E8FEEF16161706E807F90714
:1006E000C0F012161306E407F50798F0621B730BAF
:1006F000840B950B39F40A2661F0232B242B252B30
:1007000021F408950A2609F4A140A6958FEF811DD2
:10071000811D089557FD9058440F551F59F05F3FB4
:1007200071F04795880F97FB991F61F09F3F79F013
:1007300087950895121613061406551FF2CF469595
:10074000F1DF08C0161617061806991FF1CF869517
:100750007105610508940895E894BB2766277727FB
:10076000CB0197F908950BD078C069D028F06ED0EE
:1007700018F0952309F05AC05FC01124EECFCADFEC
:10078000A0F3959FD1F3950F50E0551F629FF001A4
:10079000729FBB27F00DB11D639FAA27F00DB11DFD
:1007A000AA1F649F6627B00DA11D661F829F222786
:1007B000B00DA11D621F739FB00DA11D621F839F0D
:1007C000A00D611D221F749F3327A00D611D231FE3
:1007D000849F600D211D822F762F6A2F11249F5731
:1007E00050408AF0E1F088234AF0EE0FFF1FBB1F54
:1007F000661F771F881F91505040A9F79E3F5105F3
:1008000070F014C0AACF5F3FECF3983EDCF38695FE
:1008100077956795B795F795E7959F5FC1F7FE2B9D
:10082000880F911D9695879597F9089597F99F6779
:1008300080E870E060E008959FEF80EC0895002468
:100840000A941616170618060906089500240A9435
:1008500012161306140605060895092E0394000CBB
:1008600011F4882352F0BB0F40F4BF2B11F460FF4A
:1008700004C06F5F7F4F8F4F9F4F0895CF93DF93DB
:10088000C82FD42FE82FF0E0EE0FFF1FEE0FFF1F51
:100890009F012C5C3D4FF901A281B3816C93CD0186
:1008A0000197FC0170830197FC0110825597F901B3
:1008B000B183A0838C2FA5DCDD2339F08095909146
:1008C000650A89238093650A05C09091650A892B82
:1008D0008093650A80913202C81301C053DCDF9116
:1008E000CF91089582E084BD9AEF97BD80936E000A
:1008F00083E085BD0895CF93DF93F8948EEF8093C6
:10090000650A10925402109233021092320281E072
:100910008093660AC4E3D2E084E593E099838883F8
:100920009B838A8384E594E09D838C839F838E835D
:1009300084E595E0998788879B878A8784E596E098
:100940009D878C879F878E8784E597E0998B888B1E
:100950009B8B8A8B84E598E09D8B8C8B9F8B8E8BF9
:1009600084E599E0998F888F9B8F8A8F84E59AE040
:100970009D8F8C8F9F8F8E8F8AEA809355028093F4
:1009800055038093550480935505809355068093B5
:1009900055078093550880935509A4DFEDB7FEB73E
:1009A000A881B98185818C93A881B98184811197AF
:1009B0008C93A881B981838112978C93A881B98186
:1009C000828113978C93888199812181FC013497CE
:1009D00020838881998105979EBF8DBF7894DF9190
:1009E000CF9108951F920F920FB60F9211240BB65C
:1009F0000F922F933F934F935F938F939F93AF9358
:100A0000BF93EF93FF938091160290911702A091EC
:100A10001802B09119020196A11DB11D8093160212
:100A200090931702A0931802B093190230913302E9
:100A3000E5E5FAE045E65AE021E080819181019701
:100A400081939193892B19F4822F80953823220F5B
:100A5000E417F50791F730933302FF91EF91BF91BF
:100A6000AF919F918F915F914F913F912F910F90F7
:100A70000BBE0F900FBE0F901F901895AC01279AD8
:100A80002F982FEF61EE84E0215060408040E1F725
:100A900000C000005523FCF020E030E095B19058F4
:100AA00095B99FEF60E782E0915060408040E1F7A8
:100AB00000C0000095B1905895B99FEF69E688E1B4
:100AC000915060408040E1F700C000002F5F3F4F31
:100AD000421753071CF79FEF23E264EF9150204029
:100AE0006040E1F700C00000D5CF97FB072E16F459
:100AF000009406D077FD08D00BD007FC05D03EF45B
:100B0000909581959F4F0895709561957F4F0895B9
:100B1000AA1BBB1B51E107C0AA1FBB1FA617B70723
:100B200010F0A61BB70B881F991F5A95A9F780953F
:0C0B30009095BC01CD010895F894FFCF12
:100B3C0055025503550455055506550755085509D5
:00000001FF
