S0110000526F7665722D626F742E7372656393
S113000071C0000081C000007FC000007DC00000FE
S11300107BC0000079C0000077C0000075C00000FC
S113002073C0000071C000006FC000006DC000000C
S11300306BC0000069C0000067C0000065C000001C
S113004063C0000061C000005FC000005DC000002C
S11300505BC0000059C0000057C0000055C000003C
S113006053C0000051C000004FC000004DC000004C
S11300704BC0000049C0000047C0000045C000005C
S113008043C0000041C000003FC000003DC000006C
S11300903BC0000039C0000037C0000035C000007C
S11300A033C0000065C000002FC000002DC0000058
S11300B02BC0000029C0000027C0000025C000009C
S11300C023C0000021C000001FC000001DC00000AC
S11300D01BC0000019C0000017C0000015C00000BC
S11300E013C0000011241FBECFEFD1E2DEBFCDBF8D
S11300F000E00CBF22E0A0E0B2E001C01D92A030FD
S1130100B207E1F702D047C07BCF279A80B387605C
S113011080BBE2E7F0E0808180628083E0EAF0E087
S1130120808184658083E1EAF0E08081806C808353
S113013080E289BB1092A5001092A40085E090E0B3
S11301409093A7008093A600789481B3876081BBC5
S113015097E0CD9BFECF81B3892781BB2FEF33ED91
S113016080E3215030408040E1F700C00000F1CF2F
S11301701F920F920FB60F9211248F939F9391B3F6
S113018087E0892781BB2F9A9F918F910F900FBE93
S10D01900F901F901895F894FFCF0C
S9030000FC
