S0110000526F7665722D626F742E7372656393
S113000071C0000081C000007FC000007DC00000FE
S11300107BC0000079C0000077C0000075C00000FC
S113002073C0000071C000006FC000006DC000000C
S11300306BC0000069C0000067C0000065C000001C
S113004063C0000061C000005FC000005DC000002C
S11300505BC0000059C0000057C0000055C000003C
S113006053C0000051C000004FC000004DC000004C
S11300704BC0000049C0000047C0000045C000005C
S113008043C0000041C000003FC000003DC000006C
S11300903BC0000039C0000037C0000035C000007C
S11300A033C000004EC000002FC000002DC000006F
S11300B02BC0000029C0000027C0000025C000009C
S11300C023C0000021C000001FC000001DC00000AC
S11300D01BC0000019C0000017C0000015C00000BC
S11300E013C0000011241FBECFEFD1E2DEBFCDBF8D
S11300F000E00CBF22E0A0E0B2E001C01D92A530F8
S1130100B207E1F702D05FC07BCF80E884B980B347
S1130110876080BBE2E7F0E0808180628083E1EA6F
S1130120F0E080818064808381B3876081BB10921A
S1130130A5001092A4001092A7001092A600789433
S1130140FFCF1F920F920FB60F9211240BB60F928E
S11301508F939F93EF93FF9391B387E0892781BB9C
S11301602F9A8091020290910302892B71F01092D0
S11301700302109202021092A5001092A400E1EA78
S1130180F0E080818F7B808313C081E090E09093C6
S1130190030280930202E1EAF0E0808180648083BC
S11301A08091A4009091A500909301028093000295
S11301B0FF91EF919F918F910F900BBE0F900FBE07
S10D01C00F901F901895F894FFCFDC
S9030000FC
