:1000000071C000008EC000008CC000008AC00000DB
:1000100088C0000086C0000084C0000082C00000CC
:1000200080C000007EC000007CC000007AC00000DC
:1000300078C0000076C0000074C0000072C00000EC
:1000400070C00000BCC000006CC000006AC00000AE
:1000500068C0000066C0000064C0000062C000000C
:1000600060C000005EC000005CC000005AC000001C
:1000700058C0000056C0000054C0000052C000002C
:1000800050C000004EC000004CC000004AC000003C
:1000900048C0000046C0000044C0000042C000004C
:1000A00040C000003EC000003CC000003AC000005C
:1000B00038C0000036C0000034C0000032C000006C
:1000C00030C000002EC000002CC000002AC000007C
:1000D00028C0000026C0000024C0000022C000008C
:1000E00020C0000011241FBECFEFD1E2DEBFCDBF84
:1000F00000E00CBF12E0A0E0B2E0E2E4F2E000E0D9
:100100000BBF02C007900D92A230B107D9F722E0D1
:10011000A2E0B2E001C01D92AE30B207E1F76FD0AD
:100120008EC06ECF81B18F6081B9809100029091B5
:10013000010288519C4F90938700809386008091A4
:10014000000290910102909389008093880080E8DA
:1001500080938000E1E8F0E080818161808383E02A
:1001600080936F0081E090E090930B0280930A02ED
:1001700008959C01F8946130710579F482B18C7F07
:1001800082B9232B19F082E090E002C081E090E078
:1001900090930B0280930A0210C0672B71F492B106
:1001A000937F92B9232B19F088E090E002C084E09D
:1001B00090E09093070280930602789408951F922E
:1001C0000F920FB60F9211248F939F9380910A0282
:1001D00090910B02029711F42B9A03C085B1887796
:1001E00085B980910A0290910B0292B1892782B958
:1001F0009F918F910F900FBE0F901F9018952F9A7F
:1002000091DF78942FEF83ED90E321508040904070
:10021000E1F700C0000061E070E080E090E0A9DF5D
:100220002FEF83ED90E3215080409040E1F700C034
:10023000000061E070E081E090E09BDFE3CFF894A4
:02024000FFCFEE
:020242000A00B0
:00000001FF
